:100000000C944C000C9461000C9461000C94610001
:100010000C9461000C9461000C9461000C946100DC
:100020000C9461000C9461000C9461000C946100CC
:100030000C9461000C9461000C9461000C946100BC
:100040000C9461000C9461000C9461000C946100AC
:100050000C9461000C9461000C9461000C9461009C
:100060000C9461000C9461000C9461000C9461008C
:100070000C9461000C9461000C9461000C9461007C
:100080000C9461000C9461000C9461000C9461006C
:100090000C9461000C94610011241FBECFEFD0E1DD
:1000A000DEBFCDBF11E0A0E0B1E0ECE7F3E002C0BD
:1000B00005900D92A035B107D9F70E94DA000C9493
:1000C000BC010C9400001092CD008CE08093CC0019
:1000D000E8ECF0E0808182608083E9ECF0E08081F0
:1000E0008860808380818061808386E08093CA00FD
:1000F00080E00895982F8091C80085FD02C081E0BE
:1001000008959093CE0080E00895FC0124EC39E03E
:100110000AC08091C80085FFFCCF9093CE00C90132
:100120000197F1F731969081992399F780E008952E
:1001300082E084BD85E085BD17BC80E00895A99963
:1001400002C080E00895A99A81E00895982F887FE1
:1001500011F081E0089567BD85B5887F85BD85B5BF
:10016000892B85BD16BC80E0089586E084B981E5C1
:100170008CBD08958EBD0DB407FEFDCF08958EBDD4
:100180000DB407FEFDCF8EB5089511B880EC84B98B
:100190008FEF87B91AB887E08DB910BA089585B185
:1001A0008F7385B918B885B1806C85B985B18F73A7
:1001B00085B908951F9311B880EC84B98FEF87B982
:1001C0001AB887E08DB910BA85B18F7385B918B8A0
:1001D00085B1806C85B985B18F7385B982E084BDA6
:1001E00085E085BD17BC1092CD008CE08093CC00DB
:1001F0008091C80082608093C8008091C9008860A7
:100200008093C9008091C90080618093C90086E015
:100210008093CA00E0E0F1E024EC39E00AC080916C
:10022000C80085FFFCCF9093CE00C9010197F1F77C
:1002300031969081992399F780E4809380008BE038
:10024000809381008FEF88B980E885B920E030E0A5
:1002500044EC59E016E0B1E5A2E671E061E602C0C7
:1002600022E030E021303105D9F02130310528F08D
:100270002230310509F04DC045C0ECE0F1E00AC084
:100280008091C80085FFFCCF9093CE00CA010197F2
:10029000F1F731969081992399F714B9BCBD36C016
:1002A000E4E2F1E00AC08091C80085FFFCCF9093A2
:1002B000CE00CA010197F1F731969081992399F701
:1002C0007EBD0DB407FEFDCF2EB5EEE2F1E00AC013
:1002D0008091C80085FFFCCF9093CE00CA010197A2
:1002E000F1F731969081992399F78091C80085FFA5
:1002F00002C02093CE008091CE006EBD0DB407FEEB
:10030000FDCFAECFAEBD0DB407FEFDCF21E030E096
:10031000A9CFEFE3F1E00AC08091C80085FFFCCFD0
:100320009093CE00CA010197F1F7319690819923FD
:1003300099F798CF806680937C0086EC80937A0052
:1003400080917A0084FFFCCF80917A008061809355
:100350007A0080917A00806480937A0080917A009C
:1003600084FFFCCF80917A00806180937A00809135
:0C037000790010927A000895F894FFCFF5
:10037C00426F6F74696E672055700A00496E74691C
:10038C00616C697A696E6720524620416E74656EA5
:10039C006E610A0049646C696E672E2E0A00436810
:1003AC0061722072656369657665643A200A00495A
:1003BC006E76616C69642073746174650A00200048
:00000001FF
